{
	"_format": "hh-sol-artifact-1",
	"contractName": "NFTCollectible",
	"sourceName": "contracts/NFTCollectible.sol",
	"abi": [
		{
			"inputs": [
				{
					"internalType": "string",
					"name": "baseURI",
					"type": "string"
				}
			],
			"stateMutability": "nonpayable",
			"type": "constructor"
		},
		{
			"anonymous": false,
			"inputs": [
				{
					"indexed": true,
					"internalType": "address",
					"name": "owner",
					"type": "address"
				},
				{
					"indexed": true,
					"internalType": "address",
					"name": "approved",
					"type": "address"
				},
				{
					"indexed": true,
					"internalType": "uint256",
					"name": "tokenId",
					"type": "uint256"
				}
			],
			"name": "Approval",
			"type": "event"
		},
		{
			"anonymous": false,
			"inputs": [
				{
					"indexed": true,
					"internalType": "address",
					"name": "owner",
					"type": "address"
				},
				{
					"indexed": true,
					"internalType": "address",
					"name": "operator",
					"type": "address"
				},
				{
					"indexed": false,
					"internalType": "bool",
					"name": "approved",
					"type": "bool"
				}
			],
			"name": "ApprovalForAll",
			"type": "event"
		},
		{
			"anonymous": false,
			"inputs": [
				{
					"indexed": true,
					"internalType": "address",
					"name": "previousOwner",
					"type": "address"
				},
				{
					"indexed": true,
					"internalType": "address",
					"name": "newOwner",
					"type": "address"
				}
			],
			"name": "OwnershipTransferred",
			"type": "event"
		},
		{
			"anonymous": false,
			"inputs": [
				{
					"indexed": true,
					"internalType": "address",
					"name": "from",
					"type": "address"
				},
				{
					"indexed": true,
					"internalType": "address",
					"name": "to",
					"type": "address"
				},
				{
					"indexed": true,
					"internalType": "uint256",
					"name": "tokenId",
					"type": "uint256"
				}
			],
			"name": "Transfer",
			"type": "event"
		},
		{
			"inputs": [],
			"name": "MAX_PER_MINT",
			"outputs": [
				{
					"internalType": "uint256",
					"name": "",
					"type": "uint256"
				}
			],
			"stateMutability": "view",
			"type": "function"
		},
		{
			"inputs": [],
			"name": "MAX_SUPPLY",
			"outputs": [
				{
					"internalType": "uint256",
					"name": "",
					"type": "uint256"
				}
			],
			"stateMutability": "view",
			"type": "function"
		},
		{
			"inputs": [],
			"name": "PRICE",
			"outputs": [
				{
					"internalType": "uint256",
					"name": "",
					"type": "uint256"
				}
			],
			"stateMutability": "view",
			"type": "function"
		},
		{
			"inputs": [
				{
					"internalType": "address",
					"name": "to",
					"type": "address"
				},
				{
					"internalType": "uint256",
					"name": "tokenId",
					"type": "uint256"
				}
			],
			"name": "approve",
			"outputs": [],
			"stateMutability": "nonpayable",
			"type": "function"
		},
		{
			"inputs": [
				{
					"internalType": "address",
					"name": "owner",
					"type": "address"
				}
			],
			"name": "balanceOf",
			"outputs": [
				{
					"internalType": "uint256",
					"name": "",
					"type": "uint256"
				}
			],
			"stateMutability": "view",
			"type": "function"
		},
		{
			"inputs": [],
			"name": "baseTokenURI",
			"outputs": [
				{
					"internalType": "string",
					"name": "",
					"type": "string"
				}
			],
			"stateMutability": "view",
			"type": "function"
		},
		{
			"inputs": [
				{
					"internalType": "uint256",
					"name": "tokenId",
					"type": "uint256"
				}
			],
			"name": "getApproved",
			"outputs": [
				{
					"internalType": "address",
					"name": "",
					"type": "address"
				}
			],
			"stateMutability": "view",
			"type": "function"
		},
		{
			"inputs": [],
			"name": "getTotalMinted",
			"outputs": [
				{
					"internalType": "uint256",
					"name": "",
					"type": "uint256"
				}
			],
			"stateMutability": "view",
			"type": "function"
		},
		{
			"inputs": [
				{
					"internalType": "address",
					"name": "owner",
					"type": "address"
				},
				{
					"internalType": "address",
					"name": "operator",
					"type": "address"
				}
			],
			"name": "isApprovedForAll",
			"outputs": [
				{
					"internalType": "bool",
					"name": "",
					"type": "bool"
				}
			],
			"stateMutability": "view",
			"type": "function"
		},
		{
			"inputs": [
				{
					"internalType": "uint256",
					"name": "_count",
					"type": "uint256"
				}
			],
			"name": "mintNFTs",
			"outputs": [],
			"stateMutability": "payable",
			"type": "function"
		},
		{
			"inputs": [],
			"name": "name",
			"outputs": [
				{
					"internalType": "string",
					"name": "",
					"type": "string"
				}
			],
			"stateMutability": "view",
			"type": "function"
		},
		{
			"inputs": [],
			"name": "owner",
			"outputs": [
				{
					"internalType": "address",
					"name": "",
					"type": "address"
				}
			],
			"stateMutability": "view",
			"type": "function"
		},
		{
			"inputs": [
				{
					"internalType": "uint256",
					"name": "tokenId",
					"type": "uint256"
				}
			],
			"name": "ownerOf",
			"outputs": [
				{
					"internalType": "address",
					"name": "",
					"type": "address"
				}
			],
			"stateMutability": "view",
			"type": "function"
		},
		{
			"inputs": [],
			"name": "renounceOwnership",
			"outputs": [],
			"stateMutability": "nonpayable",
			"type": "function"
		},
		{
			"inputs": [],
			"name": "reserveNFTs",
			"outputs": [],
			"stateMutability": "nonpayable",
			"type": "function"
		},
		{
			"inputs": [
				{
					"internalType": "address",
					"name": "from",
					"type": "address"
				},
				{
					"internalType": "address",
					"name": "to",
					"type": "address"
				},
				{
					"internalType": "uint256",
					"name": "tokenId",
					"type": "uint256"
				}
			],
			"name": "safeTransferFrom",
			"outputs": [],
			"stateMutability": "nonpayable",
			"type": "function"
		},
		{
			"inputs": [
				{
					"internalType": "address",
					"name": "from",
					"type": "address"
				},
				{
					"internalType": "address",
					"name": "to",
					"type": "address"
				},
				{
					"internalType": "uint256",
					"name": "tokenId",
					"type": "uint256"
				},
				{
					"internalType": "bytes",
					"name": "data",
					"type": "bytes"
				}
			],
			"name": "safeTransferFrom",
			"outputs": [],
			"stateMutability": "nonpayable",
			"type": "function"
		},
		{
			"inputs": [
				{
					"internalType": "address",
					"name": "operator",
					"type": "address"
				},
				{
					"internalType": "bool",
					"name": "approved",
					"type": "bool"
				}
			],
			"name": "setApprovalForAll",
			"outputs": [],
			"stateMutability": "nonpayable",
			"type": "function"
		},
		{
			"inputs": [
				{
					"internalType": "string",
					"name": "_baseTokenURI",
					"type": "string"
				}
			],
			"name": "setBaseURI",
			"outputs": [],
			"stateMutability": "nonpayable",
			"type": "function"
		},
		{
			"inputs": [
				{
					"internalType": "bytes4",
					"name": "interfaceId",
					"type": "bytes4"
				}
			],
			"name": "supportsInterface",
			"outputs": [
				{
					"internalType": "bool",
					"name": "",
					"type": "bool"
				}
			],
			"stateMutability": "view",
			"type": "function"
		},
		{
			"inputs": [],
			"name": "symbol",
			"outputs": [
				{
					"internalType": "string",
					"name": "",
					"type": "string"
				}
			],
			"stateMutability": "view",
			"type": "function"
		},
		{
			"inputs": [
				{
					"internalType": "uint256",
					"name": "index",
					"type": "uint256"
				}
			],
			"name": "tokenByIndex",
			"outputs": [
				{
					"internalType": "uint256",
					"name": "",
					"type": "uint256"
				}
			],
			"stateMutability": "view",
			"type": "function"
		},
		{
			"inputs": [
				{
					"internalType": "address",
					"name": "owner",
					"type": "address"
				},
				{
					"internalType": "uint256",
					"name": "index",
					"type": "uint256"
				}
			],
			"name": "tokenOfOwnerByIndex",
			"outputs": [
				{
					"internalType": "uint256",
					"name": "",
					"type": "uint256"
				}
			],
			"stateMutability": "view",
			"type": "function"
		},
		{
			"inputs": [
				{
					"internalType": "uint256",
					"name": "tokenId",
					"type": "uint256"
				}
			],
			"name": "tokenURI",
			"outputs": [
				{
					"internalType": "string",
					"name": "",
					"type": "string"
				}
			],
			"stateMutability": "view",
			"type": "function"
		},
		{
			"inputs": [
				{
					"internalType": "address",
					"name": "_owner",
					"type": "address"
				}
			],
			"name": "tokensOfOwner",
			"outputs": [
				{
					"internalType": "uint256[]",
					"name": "",
					"type": "uint256[]"
				}
			],
			"stateMutability": "view",
			"type": "function"
		},
		{
			"inputs": [],
			"name": "totalSupply",
			"outputs": [
				{
					"internalType": "uint256",
					"name": "",
					"type": "uint256"
				}
			],
			"stateMutability": "view",
			"type": "function"
		},
		{
			"inputs": [
				{
					"internalType": "address",
					"name": "from",
					"type": "address"
				},
				{
					"internalType": "address",
					"name": "to",
					"type": "address"
				},
				{
					"internalType": "uint256",
					"name": "tokenId",
					"type": "uint256"
				}
			],
			"name": "transferFrom",
			"outputs": [],
			"stateMutability": "nonpayable",
			"type": "function"
		},
		{
			"inputs": [
				{
					"internalType": "address",
					"name": "newOwner",
					"type": "address"
				}
			],
			"name": "transferOwnership",
			"outputs": [],
			"stateMutability": "nonpayable",
			"type": "function"
		},
		{
			"inputs": [],
			"name": "withdraw",
			"outputs": [],
			"stateMutability": "payable",
			"type": "function"
		}
	],
	"bytecode": "0x60806040523480156200001157600080fd5b50604051620049e6380380620049e6833981810160405281019062000037919062000442565b6040518060400160405280601981526020017f4b616b656461736869206d696e7420636f6c6c656374696f6e000000000000008152506040518060400160405280600381526020017f4b4d4300000000000000000000000000000000000000000000000000000000008152508160009081620000b49190620006de565b508060019081620000c69190620006de565b505050620000e9620000dd6200010160201b60201c565b6200010960201b60201c565b620000fa81620001cf60201b60201c565b5062000848565b600033905090565b6000600a60009054906101000a900473ffffffffffffffffffffffffffffffffffffffff16905081600a60006101000a81548173ffffffffffffffffffffffffffffffffffffffff021916908373ffffffffffffffffffffffffffffffffffffffff1602179055508173ffffffffffffffffffffffffffffffffffffffff168173ffffffffffffffffffffffffffffffffffffffff167f8be0079c531659141344cd1fd0a4f28419497f9722a3daafe3b4186f6b6457e060405160405180910390a35050565b620001df620001f460201b60201c565b80600c9081620001f09190620006de565b5050565b620002046200010160201b60201c565b73ffffffffffffffffffffffffffffffffffffffff166200022a6200028560201b60201c565b73ffffffffffffffffffffffffffffffffffffffff161462000283576040517f08c379a00000000000000000000000000000000000000000000000000000000081526004016200027a9062000826565b60405180910390fd5b565b6000600a60009054906101000a900473ffffffffffffffffffffffffffffffffffffffff16905090565b6000604051905090565b600080fd5b600080fd5b600080fd5b600080fd5b6000601f19601f8301169050919050565b7f4e487b7100000000000000000000000000000000000000000000000000000000600052604160045260246000fd5b6200031882620002cd565b810181811067ffffffffffffffff821117156200033a5762000339620002de565b5b80604052505050565b60006200034f620002af565b90506200035d82826200030d565b919050565b600067ffffffffffffffff82111562000380576200037f620002de565b5b6200038b82620002cd565b9050602081019050919050565b60005b83811015620003b85780820151818401526020810190506200039b565b60008484015250505050565b6000620003db620003d58462000362565b62000343565b905082815260208101848484011115620003fa57620003f9620002c8565b5b6200040784828562000398565b509392505050565b600082601f830112620004275762000426620002c3565b5b815162000439848260208601620003c4565b91505092915050565b6000602082840312156200045b576200045a620002b9565b5b600082015167ffffffffffffffff8111156200047c576200047b620002be565b5b6200048a848285016200040f565b91505092915050565b600081519050919050565b7f4e487b7100000000000000000000000000000000000000000000000000000000600052602260045260246000fd5b60006002820490506001821680620004e657607f821691505b602082108103620004fc57620004fb6200049e565b5b50919050565b60008190508160005260206000209050919050565b60006020601f8301049050919050565b600082821b905092915050565b600060088302620005667fffffffffffffffffffffffffffffffffffffffffffffffffffffffffffffffff8262000527565b62000572868362000527565b95508019841693508086168417925050509392505050565b6000819050919050565b6000819050919050565b6000620005bf620005b9620005b3846200058a565b62000594565b6200058a565b9050919050565b6000819050919050565b620005db836200059e565b620005f3620005ea82620005c6565b84845462000534565b825550505050565b600090565b6200060a620005fb565b62000617818484620005d0565b505050565b5b818110156200063f576200063360008262000600565b6001810190506200061d565b5050565b601f8211156200068e57620006588162000502565b620006638462000517565b8101602085101562000673578190505b6200068b620006828562000517565b8301826200061c565b50505b505050565b600082821c905092915050565b6000620006b36000198460080262000693565b1980831691505092915050565b6000620006ce8383620006a0565b9150826002028217905092915050565b620006e98262000493565b67ffffffffffffffff811115620007055762000704620002de565b5b620007118254620004cd565b6200071e82828562000643565b600060209050601f83116001811462000756576000841562000741578287015190505b6200074d8582620006c0565b865550620007bd565b601f198416620007668662000502565b60005b82811015620007905784890151825560018201915060208501945060208101905062000769565b86831015620007b05784890151620007ac601f891682620006a0565b8355505b6001600288020188555050505b505050505050565b600082825260208201905092915050565b7f4f776e61626c653a2063616c6c6572206973206e6f7420746865206f776e6572600082015250565b60006200080e602083620007c5565b91506200081b82620007d6565b602082019050919050565b600060208201905081810360008301526200084181620007ff565b9050919050565b61418e80620008586000396000f3fe6080604052600436106101c25760003560e01c80634f6ccce7116100f75780638da5cb5b11610095578063c87b56dd11610064578063c87b56dd14610614578063d547cfb714610651578063e985e9c51461067c578063f2fde38b146106b9576101c2565b80638da5cb5b1461056c57806395d89b4114610597578063a22cb465146105c2578063b88d4fde146105eb576101c2565b806370a08231116100d157806370a08231146104b0578063715018a6146104ed5780638462151c146105045780638d859f3e14610541576101c2565b80634f6ccce71461040d57806355f804b31461044a5780636352211e14610473576101c2565b806318160ddd1161016457806332cb6b0c1161013e57806332cb6b0c146103935780633b4b1381146103be5780633ccfd60b146103da57806342842e0e146103e4576101c2565b806318160ddd1461030257806323b872dd1461032d5780632f745c5914610356576101c2565b8063095ea7b3116101a0578063095ea7b31461026c57806309d42b30146102955780630ca1c5c9146102c0578063144100c7146102eb576101c2565b806301ffc9a7146101c757806306fdde0314610204578063081812fc1461022f575b600080fd5b3480156101d357600080fd5b506101ee60048036038101906101e991906128f5565b6106e2565b6040516101fb919061293d565b60405180910390f35b34801561021057600080fd5b5061021961075c565b60405161022691906129e8565b60405180910390f35b34801561023b57600080fd5b5061025660048036038101906102519190612a40565b6107ee565b6040516102639190612aae565b60405180910390f35b34801561027857600080fd5b50610293600480360381019061028e9190612af5565b610834565b005b3480156102a157600080fd5b506102aa61094b565b6040516102b79190612b44565b60405180910390f35b3480156102cc57600080fd5b506102d5610950565b6040516102e29190612b44565b60405180910390f35b3480156102f757600080fd5b50610300610961565b005b34801561030e57600080fd5b506103176109f8565b6040516103249190612b44565b60405180910390f35b34801561033957600080fd5b50610354600480360381019061034f9190612b5f565b610a05565b005b34801561036257600080fd5b5061037d60048036038101906103789190612af5565b610a65565b60405161038a9190612b44565b60405180910390f35b34801561039f57600080fd5b506103a8610b0a565b6040516103b59190612b44565b60405180910390f35b6103d860048036038101906103d39190612a40565b610b0f565b005b6103e2610c4a565b005b3480156103f057600080fd5b5061040b60048036038101906104069190612b5f565b610d4a565b005b34801561041957600080fd5b50610434600480360381019061042f9190612a40565b610d6a565b6040516104419190612b44565b60405180910390f35b34801561045657600080fd5b50610471600480360381019061046c9190612ce7565b610ddb565b005b34801561047f57600080fd5b5061049a60048036038101906104959190612a40565b610df6565b6040516104a79190612aae565b60405180910390f35b3480156104bc57600080fd5b506104d760048036038101906104d29190612d30565b610e7c565b6040516104e49190612b44565b60405180910390f35b3480156104f957600080fd5b50610502610f33565b005b34801561051057600080fd5b5061052b60048036038101906105269190612d30565b610f47565b6040516105389190612e1b565b60405180910390f35b34801561054d57600080fd5b50610556610ff5565b6040516105639190612b44565b60405180910390f35b34801561057857600080fd5b50610581611000565b60405161058e9190612aae565b60405180910390f35b3480156105a357600080fd5b506105ac61102a565b6040516105b991906129e8565b60405180910390f35b3480156105ce57600080fd5b506105e960048036038101906105e49190612e69565b6110bc565b005b3480156105f757600080fd5b50610612600480360381019061060d9190612f4a565b6110d2565b005b34801561062057600080fd5b5061063b60048036038101906106369190612a40565b611134565b60405161064891906129e8565b60405180910390f35b34801561065d57600080fd5b5061066661119c565b60405161067391906129e8565b60405180910390f35b34801561068857600080fd5b506106a3600480360381019061069e9190612fcd565b61122a565b6040516106b0919061293d565b60405180910390f35b3480156106c557600080fd5b506106e060048036038101906106db9190612d30565b6112be565b005b60007f780e9d63000000000000000000000000000000000000000000000000000000007bffffffffffffffffffffffffffffffffffffffffffffffffffffffff1916827bffffffffffffffffffffffffffffffffffffffffffffffffffffffff19161480610755575061075482611341565b5b9050919050565b60606000805461076b9061303c565b80601f01602080910402602001604051908101604052809291908181526020018280546107979061303c565b80156107e45780601f106107b9576101008083540402835291602001916107e4565b820191906000526020600020905b8154815290600101906020018083116107c757829003601f168201915b5050505050905090565b60006107f982611423565b6004600083815260200190815260200160002060009054906101000a900473ffffffffffffffffffffffffffffffffffffffff169050919050565b600061083f82610df6565b90508073ffffffffffffffffffffffffffffffffffffffff168373ffffffffffffffffffffffffffffffffffffffff16036108af576040517f08c379a00000000000000000000000000000000000000000000000000000000081526004016108a6906130df565b60405180910390fd5b8073ffffffffffffffffffffffffffffffffffffffff166108ce61146e565b73ffffffffffffffffffffffffffffffffffffffff1614806108fd57506108fc816108f761146e565b61122a565b5b61093c576040517f08c379a000000000000000000000000000000000000000000000000000000000815260040161093390613171565b60405180910390fd5b6109468383611476565b505050565b600181565b600061095c600b61152f565b905090565b61096961153d565b6000610975600b61152f565b9050606661098d6001836115bb90919063ffffffff16565b106109cd576040517f08c379a00000000000000000000000000000000000000000000000000000000081526004016109c4906131dd565b60405180910390fd5b60005b60018110156109f4576109e16115d1565b80806109ec9061322c565b9150506109d0565b5050565b6000600880549050905090565b610a16610a1061146e565b826115f6565b610a55576040517f08c379a0000000000000000000000000000000000000000000000000000000008152600401610a4c906132e6565b60405180910390fd5b610a6083838361168b565b505050565b6000610a7083610e7c565b8210610ab1576040517f08c379a0000000000000000000000000000000000000000000000000000000008152600401610aa890613378565b60405180910390fd5b600660008473ffffffffffffffffffffffffffffffffffffffff1673ffffffffffffffffffffffffffffffffffffffff168152602001908152602001600020600083815260200190815260200160002054905092915050565b606681565b6000610b1b600b61152f565b90506066610b3283836115bb90919063ffffffff16565b1115610b73576040517f08c379a0000000000000000000000000000000000000000000000000000000008152600401610b6a906133e4565b60405180910390fd5b600082118015610b84575060018211155b610bc3576040517f08c379a0000000000000000000000000000000000000000000000000000000008152600401610bba90613476565b60405180910390fd5b610bdd82662386f26fc1000061198490919063ffffffff16565b341015610c1f576040517f08c379a0000000000000000000000000000000000000000000000000000000008152600401610c1690613508565b60405180910390fd5b60005b82811015610c4557610c326115d1565b8080610c3d9061322c565b915050610c22565b505050565b610c5261153d565b600047905060008111610c9a576040517f08c379a0000000000000000000000000000000000000000000000000000000008152600401610c9190613574565b60405180910390fd5b60003373ffffffffffffffffffffffffffffffffffffffff1682604051610cc0906135c5565b60006040518083038185875af1925050503d8060008114610cfd576040519150601f19603f3d011682016040523d82523d6000602084013e610d02565b606091505b5050905080610d46576040517f08c379a0000000000000000000000000000000000000000000000000000000008152600401610d3d90613626565b60405180910390fd5b5050565b610d65838383604051806020016040528060008152506110d2565b505050565b6000610d746109f8565b8210610db5576040517f08c379a0000000000000000000000000000000000000000000000000000000008152600401610dac906136b8565b60405180910390fd5b60088281548110610dc957610dc86136d8565b5b90600052602060002001549050919050565b610de361153d565b80600c9081610df291906138b3565b5050565b600080610e028361199a565b9050600073ffffffffffffffffffffffffffffffffffffffff168173ffffffffffffffffffffffffffffffffffffffff1603610e73576040517f08c379a0000000000000000000000000000000000000000000000000000000008152600401610e6a906139d1565b60405180910390fd5b80915050919050565b60008073ffffffffffffffffffffffffffffffffffffffff168273ffffffffffffffffffffffffffffffffffffffff1603610eec576040517f08c379a0000000000000000000000000000000000000000000000000000000008152600401610ee390613a63565b60405180910390fd5b600360008373ffffffffffffffffffffffffffffffffffffffff1673ffffffffffffffffffffffffffffffffffffffff168152602001908152602001600020549050919050565b610f3b61153d565b610f4560006119d7565b565b60606000610f5483610e7c565b905060008167ffffffffffffffff811115610f7257610f71612bbc565b5b604051908082528060200260200182016040528015610fa05781602001602082028036833780820191505090505b50905060005b82811015610fea57610fb88582610a65565b828281518110610fcb57610fca6136d8565b5b6020026020010181815250508080610fe29061322c565b915050610fa6565b508092505050919050565b662386f26fc1000081565b6000600a60009054906101000a900473ffffffffffffffffffffffffffffffffffffffff16905090565b6060600180546110399061303c565b80601f01602080910402602001604051908101604052809291908181526020018280546110659061303c565b80156110b25780601f10611087576101008083540402835291602001916110b2565b820191906000526020600020905b81548152906001019060200180831161109557829003601f168201915b5050505050905090565b6110ce6110c761146e565b8383611a9d565b5050565b6110e36110dd61146e565b836115f6565b611122576040517f08c379a0000000000000000000000000000000000000000000000000000000008152600401611119906132e6565b60405180910390fd5b61112e84848484611c09565b50505050565b606061113f82611423565b6000611149611c65565b905060008151116111695760405180602001604052806000815250611194565b8061117384611cf7565b604051602001611184929190613abf565b6040516020818303038152906040525b915050919050565b600c80546111a99061303c565b80601f01602080910402602001604051908101604052809291908181526020018280546111d59061303c565b80156112225780601f106111f757610100808354040283529160200191611222565b820191906000526020600020905b81548152906001019060200180831161120557829003601f168201915b505050505081565b6000600560008473ffffffffffffffffffffffffffffffffffffffff1673ffffffffffffffffffffffffffffffffffffffff16815260200190815260200160002060008373ffffffffffffffffffffffffffffffffffffffff1673ffffffffffffffffffffffffffffffffffffffff16815260200190815260200160002060009054906101000a900460ff16905092915050565b6112c661153d565b600073ffffffffffffffffffffffffffffffffffffffff168173ffffffffffffffffffffffffffffffffffffffff1603611335576040517f08c379a000000000000000000000000000000000000000000000000000000000815260040161132c90613b55565b60405180910390fd5b61133e816119d7565b50565b60007f80ac58cd000000000000000000000000000000000000000000000000000000007bffffffffffffffffffffffffffffffffffffffffffffffffffffffff1916827bffffffffffffffffffffffffffffffffffffffffffffffffffffffff1916148061140c57507f5b5e139f000000000000000000000000000000000000000000000000000000007bffffffffffffffffffffffffffffffffffffffffffffffffffffffff1916827bffffffffffffffffffffffffffffffffffffffffffffffffffffffff1916145b8061141c575061141b82611dc5565b5b9050919050565b61142c81611e2f565b61146b576040517f08c379a0000000000000000000000000000000000000000000000000000000008152600401611462906139d1565b60405180910390fd5b50565b600033905090565b816004600083815260200190815260200160002060006101000a81548173ffffffffffffffffffffffffffffffffffffffff021916908373ffffffffffffffffffffffffffffffffffffffff160217905550808273ffffffffffffffffffffffffffffffffffffffff166114e983610df6565b73ffffffffffffffffffffffffffffffffffffffff167f8c5be1e5ebec7d5bd14f71427d1e84f3dd0314c0f7b2291e5b200ac8c7c3b92560405160405180910390a45050565b600081600001549050919050565b61154561146e565b73ffffffffffffffffffffffffffffffffffffffff16611563611000565b73ffffffffffffffffffffffffffffffffffffffff16146115b9576040517f08c379a00000000000000000000000000000000000000000000000000000000081526004016115b090613bc1565b60405180910390fd5b565b600081836115c99190613be1565b905092915050565b60006115dd600b61152f565b90506115e93382611e70565b6115f3600b611e8e565b50565b60008061160283610df6565b90508073ffffffffffffffffffffffffffffffffffffffff168473ffffffffffffffffffffffffffffffffffffffff1614806116445750611643818561122a565b5b8061168257508373ffffffffffffffffffffffffffffffffffffffff1661166a846107ee565b73ffffffffffffffffffffffffffffffffffffffff16145b91505092915050565b8273ffffffffffffffffffffffffffffffffffffffff166116ab82610df6565b73ffffffffffffffffffffffffffffffffffffffff1614611701576040517f08c379a00000000000000000000000000000000000000000000000000000000081526004016116f890613c87565b60405180910390fd5b600073ffffffffffffffffffffffffffffffffffffffff168273ffffffffffffffffffffffffffffffffffffffff1603611770576040517f08c379a000000000000000000000000000000000000000000000000000000000815260040161176790613d19565b60405180910390fd5b61177d8383836001611ea4565b8273ffffffffffffffffffffffffffffffffffffffff1661179d82610df6565b73ffffffffffffffffffffffffffffffffffffffff16146117f3576040517f08c379a00000000000000000000000000000000000000000000000000000000081526004016117ea90613c87565b60405180910390fd5b6004600082815260200190815260200160002060006101000a81549073ffffffffffffffffffffffffffffffffffffffff02191690556001600360008573ffffffffffffffffffffffffffffffffffffffff1673ffffffffffffffffffffffffffffffffffffffff168152602001908152602001600020600082825403925050819055506001600360008473ffffffffffffffffffffffffffffffffffffffff1673ffffffffffffffffffffffffffffffffffffffff16815260200190815260200160002060008282540192505081905550816002600083815260200190815260200160002060006101000a81548173ffffffffffffffffffffffffffffffffffffffff021916908373ffffffffffffffffffffffffffffffffffffffff160217905550808273ffffffffffffffffffffffffffffffffffffffff168473ffffffffffffffffffffffffffffffffffffffff167fddf252ad1be2c89b69c2b068fc378daa952ba7f163c4a11628f55a4df523b3ef60405160405180910390a461197f8383836001612002565b505050565b600081836119929190613d39565b905092915050565b60006002600083815260200190815260200160002060009054906101000a900473ffffffffffffffffffffffffffffffffffffffff169050919050565b6000600a60009054906101000a900473ffffffffffffffffffffffffffffffffffffffff16905081600a60006101000a81548173ffffffffffffffffffffffffffffffffffffffff021916908373ffffffffffffffffffffffffffffffffffffffff1602179055508173ffffffffffffffffffffffffffffffffffffffff168173ffffffffffffffffffffffffffffffffffffffff167f8be0079c531659141344cd1fd0a4f28419497f9722a3daafe3b4186f6b6457e060405160405180910390a35050565b8173ffffffffffffffffffffffffffffffffffffffff168373ffffffffffffffffffffffffffffffffffffffff1603611b0b576040517f08c379a0000000000000000000000000000000000000000000000000000000008152600401611b0290613dc7565b60405180910390fd5b80600560008573ffffffffffffffffffffffffffffffffffffffff1673ffffffffffffffffffffffffffffffffffffffff16815260200190815260200160002060008473ffffffffffffffffffffffffffffffffffffffff1673ffffffffffffffffffffffffffffffffffffffff16815260200190815260200160002060006101000a81548160ff0219169083151502179055508173ffffffffffffffffffffffffffffffffffffffff168373ffffffffffffffffffffffffffffffffffffffff167f17307eab39ab6107e8899845ad3d59bd9653f200f220920489ca2b5937696c3183604051611bfc919061293d565b60405180910390a3505050565b611c1484848461168b565b611c2084848484612008565b611c5f576040517f08c379a0000000000000000000000000000000000000000000000000000000008152600401611c5690613e59565b60405180910390fd5b50505050565b6060600c8054611c749061303c565b80601f0160208091040260200160405190810160405280929190818152602001828054611ca09061303c565b8015611ced5780601f10611cc257610100808354040283529160200191611ced565b820191906000526020600020905b815481529060010190602001808311611cd057829003601f168201915b5050505050905090565b606060006001611d068461218f565b01905060008167ffffffffffffffff811115611d2557611d24612bbc565b5b6040519080825280601f01601f191660200182016040528015611d575781602001600182028036833780820191505090505b509050600082602001820190505b600115611dba578080600190039150507f3031323334353637383961626364656600000000000000000000000000000000600a86061a8153600a8581611dae57611dad613e79565b5b04945060008503611d65575b819350505050919050565b60007f01ffc9a7000000000000000000000000000000000000000000000000000000007bffffffffffffffffffffffffffffffffffffffffffffffffffffffff1916827bffffffffffffffffffffffffffffffffffffffffffffffffffffffff1916149050919050565b60008073ffffffffffffffffffffffffffffffffffffffff16611e518361199a565b73ffffffffffffffffffffffffffffffffffffffff1614159050919050565b611e8a8282604051806020016040528060008152506122e2565b5050565b6001816000016000828254019250508190555050565b611eb08484848461233d565b6001811115611ef4576040517f08c379a0000000000000000000000000000000000000000000000000000000008152600401611eeb90613f1a565b60405180910390fd5b6000829050600073ffffffffffffffffffffffffffffffffffffffff168573ffffffffffffffffffffffffffffffffffffffff1603611f3b57611f3681612343565b611f7a565b8373ffffffffffffffffffffffffffffffffffffffff168573ffffffffffffffffffffffffffffffffffffffff1614611f7957611f78858261238c565b5b5b600073ffffffffffffffffffffffffffffffffffffffff168473ffffffffffffffffffffffffffffffffffffffff1603611fbc57611fb7816124f9565b611ffb565b8473ffffffffffffffffffffffffffffffffffffffff168473ffffffffffffffffffffffffffffffffffffffff1614611ffa57611ff984826125ca565b5b5b5050505050565b50505050565b60006120298473ffffffffffffffffffffffffffffffffffffffff16612649565b15612182578373ffffffffffffffffffffffffffffffffffffffff1663150b7a0261205261146e565b8786866040518563ffffffff1660e01b81526004016120749493929190613f8f565b6020604051808303816000875af19250505080156120b057506040513d601f19601f820116820180604052508101906120ad9190613ff0565b60015b612132573d80600081146120e0576040519150601f19603f3d011682016040523d82523d6000602084013e6120e5565b606091505b50600081510361212a576040517f08c379a000000000000000000000000000000000000000000000000000000000815260040161212190613e59565b60405180910390fd5b805181602001fd5b63150b7a0260e01b7bffffffffffffffffffffffffffffffffffffffffffffffffffffffff1916817bffffffffffffffffffffffffffffffffffffffffffffffffffffffff191614915050612187565b600190505b949350505050565b600080600090507a184f03e93ff9f4daa797ed6e38ed64bf6a1f01000000000000000083106121ed577a184f03e93ff9f4daa797ed6e38ed64bf6a1f01000000000000000083816121e3576121e2613e79565b5b0492506040810190505b6d04ee2d6d415b85acef8100000000831061222a576d04ee2d6d415b85acef810000000083816122205761221f613e79565b5b0492506020810190505b662386f26fc10000831061225957662386f26fc10000838161224f5761224e613e79565b5b0492506010810190505b6305f5e1008310612282576305f5e100838161227857612277613e79565b5b0492506008810190505b61271083106122a757612710838161229d5761229c613e79565b5b0492506004810190505b606483106122ca57606483816122c0576122bf613e79565b5b0492506002810190505b600a83106122d9576001810190505b80915050919050565b6122ec838361266c565b6122f96000848484612008565b612338576040517f08c379a000000000000000000000000000000000000000000000000000000000815260040161232f90613e59565b60405180910390fd5b505050565b50505050565b6008805490506009600083815260200190815260200160002081905550600881908060018154018082558091505060019003906000526020600020016000909190919091505550565b6000600161239984610e7c565b6123a3919061401d565b9050600060076000848152602001908152602001600020549050818114612488576000600660008673ffffffffffffffffffffffffffffffffffffffff1673ffffffffffffffffffffffffffffffffffffffff168152602001908152602001600020600084815260200190815260200160002054905080600660008773ffffffffffffffffffffffffffffffffffffffff1673ffffffffffffffffffffffffffffffffffffffff168152602001908152602001600020600084815260200190815260200160002081905550816007600083815260200190815260200160002081905550505b6007600084815260200190815260200160002060009055600660008573ffffffffffffffffffffffffffffffffffffffff1673ffffffffffffffffffffffffffffffffffffffff16815260200190815260200160002060008381526020019081526020016000206000905550505050565b6000600160088054905061250d919061401d565b905060006009600084815260200190815260200160002054905060006008838154811061253d5761253c6136d8565b5b90600052602060002001549050806008838154811061255f5761255e6136d8565b5b9060005260206000200181905550816009600083815260200190815260200160002081905550600960008581526020019081526020016000206000905560088054806125ae576125ad614051565b5b6001900381819060005260206000200160009055905550505050565b60006125d583610e7c565b905081600660008573ffffffffffffffffffffffffffffffffffffffff1673ffffffffffffffffffffffffffffffffffffffff168152602001908152602001600020600083815260200190815260200160002081905550806007600084815260200190815260200160002081905550505050565b6000808273ffffffffffffffffffffffffffffffffffffffff163b119050919050565b600073ffffffffffffffffffffffffffffffffffffffff168273ffffffffffffffffffffffffffffffffffffffff16036126db576040517f08c379a00000000000000000000000000000000000000000000000000000000081526004016126d2906140cc565b60405180910390fd5b6126e481611e2f565b15612724576040517f08c379a000000000000000000000000000000000000000000000000000000000815260040161271b90614138565b60405180910390fd5b612732600083836001611ea4565b61273b81611e2f565b1561277b576040517f08c379a000000000000000000000000000000000000000000000000000000000815260040161277290614138565b60405180910390fd5b6001600360008473ffffffffffffffffffffffffffffffffffffffff1673ffffffffffffffffffffffffffffffffffffffff16815260200190815260200160002060008282540192505081905550816002600083815260200190815260200160002060006101000a81548173ffffffffffffffffffffffffffffffffffffffff021916908373ffffffffffffffffffffffffffffffffffffffff160217905550808273ffffffffffffffffffffffffffffffffffffffff16600073ffffffffffffffffffffffffffffffffffffffff167fddf252ad1be2c89b69c2b068fc378daa952ba7f163c4a11628f55a4df523b3ef60405160405180910390a4612885600083836001612002565b5050565b6000604051905090565b600080fd5b600080fd5b60007fffffffff0000000000000000000000000000000000000000000000000000000082169050919050565b6128d28161289d565b81146128dd57600080fd5b50565b6000813590506128ef816128c9565b92915050565b60006020828403121561290b5761290a612893565b5b6000612919848285016128e0565b91505092915050565b60008115159050919050565b61293781612922565b82525050565b6000602082019050612952600083018461292e565b92915050565b600081519050919050565b600082825260208201905092915050565b60005b83811015612992578082015181840152602081019050612977565b60008484015250505050565b6000601f19601f8301169050919050565b60006129ba82612958565b6129c48185612963565b93506129d4818560208601612974565b6129dd8161299e565b840191505092915050565b60006020820190508181036000830152612a0281846129af565b905092915050565b6000819050919050565b612a1d81612a0a565b8114612a2857600080fd5b50565b600081359050612a3a81612a14565b92915050565b600060208284031215612a5657612a55612893565b5b6000612a6484828501612a2b565b91505092915050565b600073ffffffffffffffffffffffffffffffffffffffff82169050919050565b6000612a9882612a6d565b9050919050565b612aa881612a8d565b82525050565b6000602082019050612ac36000830184612a9f565b92915050565b612ad281612a8d565b8114612add57600080fd5b50565b600081359050612aef81612ac9565b92915050565b60008060408385031215612b0c57612b0b612893565b5b6000612b1a85828601612ae0565b9250506020612b2b85828601612a2b565b9150509250929050565b612b3e81612a0a565b82525050565b6000602082019050612b596000830184612b35565b92915050565b600080600060608486031215612b7857612b77612893565b5b6000612b8686828701612ae0565b9350506020612b9786828701612ae0565b9250506040612ba886828701612a2b565b9150509250925092565b600080fd5b600080fd5b7f4e487b7100000000000000000000000000000000000000000000000000000000600052604160045260246000fd5b612bf48261299e565b810181811067ffffffffffffffff82111715612c1357612c12612bbc565b5b80604052505050565b6000612c26612889565b9050612c328282612beb565b919050565b600067ffffffffffffffff821115612c5257612c51612bbc565b5b612c5b8261299e565b9050602081019050919050565b82818337600083830152505050565b6000612c8a612c8584612c37565b612c1c565b905082815260208101848484011115612ca657612ca5612bb7565b5b612cb1848285612c68565b509392505050565b600082601f830112612cce57612ccd612bb2565b5b8135612cde848260208601612c77565b91505092915050565b600060208284031215612cfd57612cfc612893565b5b600082013567ffffffffffffffff811115612d1b57612d1a612898565b5b612d2784828501612cb9565b91505092915050565b600060208284031215612d4657612d45612893565b5b6000612d5484828501612ae0565b91505092915050565b600081519050919050565b600082825260208201905092915050565b6000819050602082019050919050565b612d9281612a0a565b82525050565b6000612da48383612d89565b60208301905092915050565b6000602082019050919050565b6000612dc882612d5d565b612dd28185612d68565b9350612ddd83612d79565b8060005b83811015612e0e578151612df58882612d98565b9750612e0083612db0565b925050600181019050612de1565b5085935050505092915050565b60006020820190508181036000830152612e358184612dbd565b905092915050565b612e4681612922565b8114612e5157600080fd5b50565b600081359050612e6381612e3d565b92915050565b60008060408385031215612e8057612e7f612893565b5b6000612e8e85828601612ae0565b9250506020612e9f85828601612e54565b9150509250929050565b600067ffffffffffffffff821115612ec457612ec3612bbc565b5b612ecd8261299e565b9050602081019050919050565b6000612eed612ee884612ea9565b612c1c565b905082815260208101848484011115612f0957612f08612bb7565b5b612f14848285612c68565b509392505050565b600082601f830112612f3157612f30612bb2565b5b8135612f41848260208601612eda565b91505092915050565b60008060008060808587031215612f6457612f63612893565b5b6000612f7287828801612ae0565b9450506020612f8387828801612ae0565b9350506040612f9487828801612a2b565b925050606085013567ffffffffffffffff811115612fb557612fb4612898565b5b612fc187828801612f1c565b91505092959194509250565b60008060408385031215612fe457612fe3612893565b5b6000612ff285828601612ae0565b925050602061300385828601612ae0565b9150509250929050565b7f4e487b7100000000000000000000000000000000000000000000000000000000600052602260045260246000fd5b6000600282049050600182168061305457607f821691505b6020821081036130675761306661300d565b5b50919050565b7f4552433732313a20617070726f76616c20746f2063757272656e74206f776e6560008201527f7200000000000000000000000000000000000000000000000000000000000000602082015250565b60006130c9602183612963565b91506130d48261306d565b604082019050919050565b600060208201905081810360008301526130f8816130bc565b9050919050565b7f4552433732313a20617070726f76652063616c6c6572206973206e6f7420746f60008201527f6b656e206f776e6572206f7220617070726f76656420666f7220616c6c000000602082015250565b600061315b603d83612963565b9150613166826130ff565b604082019050919050565b6000602082019050818103600083015261318a8161314e565b9050919050565b7f4e6f7420656e6f756768204e465473206c65667420746f207265736572766500600082015250565b60006131c7601f83612963565b91506131d282613191565b602082019050919050565b600060208201905081810360008301526131f6816131ba565b9050919050565b7f4e487b7100000000000000000000000000000000000000000000000000000000600052601160045260246000fd5b600061323782612a0a565b91507fffffffffffffffffffffffffffffffffffffffffffffffffffffffffffffffff8203613269576132686131fd565b5b600182019050919050565b7f4552433732313a2063616c6c6572206973206e6f7420746f6b656e206f776e6560008201527f72206f7220617070726f76656400000000000000000000000000000000000000602082015250565b60006132d0602d83612963565b91506132db82613274565b604082019050919050565b600060208201905081810360008301526132ff816132c3565b9050919050565b7f455243373231456e756d657261626c653a206f776e657220696e646578206f7560008201527f74206f6620626f756e6473000000000000000000000000000000000000000000602082015250565b6000613362602b83612963565b915061336d82613306565b604082019050919050565b6000602082019050818103600083015261339181613355565b9050919050565b7f4e6f7420656e6f756768204e465473206c656674210000000000000000000000600082015250565b60006133ce601583612963565b91506133d982613398565b602082019050919050565b600060208201905081810360008301526133fd816133c1565b9050919050565b7f43616e6e6f74206d696e7420737065636966696564206e756d626572206f662060008201527f4e4654732e000000000000000000000000000000000000000000000000000000602082015250565b6000613460602583612963565b915061346b82613404565b604082019050919050565b6000602082019050818103600083015261348f81613453565b9050919050565b7f4e6f7420656e6f75676820657468657220746f207075726368617365204e465460008201527f732e000000000000000000000000000000000000000000000000000000000000602082015250565b60006134f2602283612963565b91506134fd82613496565b604082019050919050565b60006020820190508181036000830152613521816134e5565b9050919050565b7f4e6f206574686572206c65667420746f20776974686472617700000000000000600082015250565b600061355e601983612963565b915061356982613528565b602082019050919050565b6000602082019050818103600083015261358d81613551565b9050919050565b600081905092915050565b50565b60006135af600083613594565b91506135ba8261359f565b600082019050919050565b60006135d0826135a2565b9150819050919050565b7f5472616e73666572206661696c65642e00000000000000000000000000000000600082015250565b6000613610601083612963565b915061361b826135da565b602082019050919050565b6000602082019050818103600083015261363f81613603565b9050919050565b7f455243373231456e756d657261626c653a20676c6f62616c20696e646578206f60008201527f7574206f6620626f756e64730000000000000000000000000000000000000000602082015250565b60006136a2602c83612963565b91506136ad82613646565b604082019050919050565b600060208201905081810360008301526136d181613695565b9050919050565b7f4e487b7100000000000000000000000000000000000000000000000000000000600052603260045260246000fd5b60008190508160005260206000209050919050565b60006020601f8301049050919050565b600082821b905092915050565b6000600883026137697fffffffffffffffffffffffffffffffffffffffffffffffffffffffffffffffff8261372c565b613773868361372c565b95508019841693508086168417925050509392505050565b6000819050919050565b60006137b06137ab6137a684612a0a565b61378b565b612a0a565b9050919050565b6000819050919050565b6137ca83613795565b6137de6137d6826137b7565b848454613739565b825550505050565b600090565b6137f36137e6565b6137fe8184846137c1565b505050565b5b81811015613822576138176000826137eb565b600181019050613804565b5050565b601f8211156138675761383881613707565b6138418461371c565b81016020851015613850578190505b61386461385c8561371c565b830182613803565b50505b505050565b600082821c905092915050565b600061388a6000198460080261386c565b1980831691505092915050565b60006138a38383613879565b9150826002028217905092915050565b6138bc82612958565b67ffffffffffffffff8111156138d5576138d4612bbc565b5b6138df825461303c565b6138ea828285613826565b600060209050601f83116001811461391d576000841561390b578287015190505b6139158582613897565b86555061397d565b601f19841661392b86613707565b60005b828110156139535784890151825560018201915060208501945060208101905061392e565b86831015613970578489015161396c601f891682613879565b8355505b6001600288020188555050505b505050505050565b7f4552433732313a20696e76616c696420746f6b656e2049440000000000000000600082015250565b60006139bb601883612963565b91506139c682613985565b602082019050919050565b600060208201905081810360008301526139ea816139ae565b9050919050565b7f4552433732313a2061646472657373207a65726f206973206e6f74206120766160008201527f6c6964206f776e65720000000000000000000000000000000000000000000000602082015250565b6000613a4d602983612963565b9150613a58826139f1565b604082019050919050565b60006020820190508181036000830152613a7c81613a40565b9050919050565b600081905092915050565b6000613a9982612958565b613aa38185613a83565b9350613ab3818560208601612974565b80840191505092915050565b6000613acb8285613a8e565b9150613ad78284613a8e565b91508190509392505050565b7f4f776e61626c653a206e6577206f776e657220697320746865207a65726f206160008201527f6464726573730000000000000000000000000000000000000000000000000000602082015250565b6000613b3f602683612963565b9150613b4a82613ae3565b604082019050919050565b60006020820190508181036000830152613b6e81613b32565b9050919050565b7f4f776e61626c653a2063616c6c6572206973206e6f7420746865206f776e6572600082015250565b6000613bab602083612963565b9150613bb682613b75565b602082019050919050565b60006020820190508181036000830152613bda81613b9e565b9050919050565b6000613bec82612a0a565b9150613bf783612a0a565b9250828201905080821115613c0f57613c0e6131fd565b5b92915050565b7f4552433732313a207472616e736665722066726f6d20696e636f72726563742060008201527f6f776e6572000000000000000000000000000000000000000000000000000000602082015250565b6000613c71602583612963565b9150613c7c82613c15565b604082019050919050565b60006020820190508181036000830152613ca081613c64565b9050919050565b7f4552433732313a207472616e7366657220746f20746865207a65726f2061646460008201527f7265737300000000000000000000000000000000000000000000000000000000602082015250565b6000613d03602483612963565b9150613d0e82613ca7565b604082019050919050565b60006020820190508181036000830152613d3281613cf6565b9050919050565b6000613d4482612a0a565b9150613d4f83612a0a565b9250828202613d5d81612a0a565b91508282048414831517613d7457613d736131fd565b5b5092915050565b7f4552433732313a20617070726f766520746f2063616c6c657200000000000000600082015250565b6000613db1601983612963565b9150613dbc82613d7b565b602082019050919050565b60006020820190508181036000830152613de081613da4565b9050919050565b7f4552433732313a207472616e7366657220746f206e6f6e20455243373231526560008201527f63656976657220696d706c656d656e7465720000000000000000000000000000602082015250565b6000613e43603283612963565b9150613e4e82613de7565b604082019050919050565b60006020820190508181036000830152613e7281613e36565b9050919050565b7f4e487b7100000000000000000000000000000000000000000000000000000000600052601260045260246000fd5b7f455243373231456e756d657261626c653a20636f6e736563757469766520747260008201527f616e7366657273206e6f7420737570706f727465640000000000000000000000602082015250565b6000613f04603583612963565b9150613f0f82613ea8565b604082019050919050565b60006020820190508181036000830152613f3381613ef7565b9050919050565b600081519050919050565b600082825260208201905092915050565b6000613f6182613f3a565b613f6b8185613f45565b9350613f7b818560208601612974565b613f848161299e565b840191505092915050565b6000608082019050613fa46000830187612a9f565b613fb16020830186612a9f565b613fbe6040830185612b35565b8181036060830152613fd08184613f56565b905095945050505050565b600081519050613fea816128c9565b92915050565b60006020828403121561400657614005612893565b5b600061401484828501613fdb565b91505092915050565b600061402882612a0a565b915061403383612a0a565b925082820390508181111561404b5761404a6131fd565b5b92915050565b7f4e487b7100000000000000000000000000000000000000000000000000000000600052603160045260246000fd5b7f4552433732313a206d696e7420746f20746865207a65726f2061646472657373600082015250565b60006140b6602083612963565b91506140c182614080565b602082019050919050565b600060208201905081810360008301526140e5816140a9565b9050919050565b7f4552433732313a20746f6b656e20616c7265616479206d696e74656400000000600082015250565b6000614122601c83612963565b915061412d826140ec565b602082019050919050565b6000602082019050818103600083015261415181614115565b905091905056fea2646970667358221220f2543f1b03643b91b41e7f92c4c4373bf3f3df72de6f064622a249c6651e794a64736f6c63430008120033",
	"linkReferences": {},
	"deployedLinkReferences": {}
}